:020000040800F2
:1000000000800020D5CD000825CE000825CE0008B0
:1000100025CE000825CE000825CE000800000000EF
:1000200000000000000000000000000025CE0008D5
:1000300025CE00080000000025CE0008097D00083C
:1000400025CE000825CE000825CE000825CE0008C4
:1000500025CE000825CE0008237D000825CE000807
:1000600025CE000825CE000825CE000825CE0008A4
:1000700025CE000825CE000825CE000825CE000894
:1000800025CE000825CE000825CE000825CE000884
:10009000E587000825CE000825CE000825CE0008FB
:1000A00025CE000825CE000825CE000825CE000864
:1000B00025CE000825CE000825CE000825CE000854
:1000C00025CE000825CE000825CE000825CE000844
:1000D00025CE000825CE000825CE000825CE000834
:1000E00025CE000825CE000825CE000825CE000824
:1000F00025CE000825CE000825CE000825CE000814
:1001000000000000000000000000000025CE0008F4
:1001100025CE000825CE000825CE000825CE0008F3
:1001200025CE000825CE000825CE000825CE0008E3
:1001300025CE000825CE00080000000000000000C9
:1001400025CE000825CE000825CE000800000000BE
:10015000000000000000000000000000000000009F
:10016000000000000000000025CE000825CE000899
:1001700025CE000800000000000000000000000084
:080180000000000025CE00087C
:1001C0000348044B834202D0034B03B118477047E6
:1001D000940C0020940C0020000000000548064903
:1001E0000B1AD90F01EBA301491002D0034B03B145
:1001F00018477047940C0020940C00200000000069
:1002000010B5064C237843B9FFF7DAFF044B13B15E
:100210000448AFF300800123237010BD940C00202C
:10022000000000003CCE000808B5044B1BB1044997
:100230000448AFF30080BDE80840CFE700000000AD
:10024000980C00203CCE00082DE9F04304460D46F2
:10025000DFF8D4664FF00009A6F10106002E08BFB2
:1002600048E03046DFF8C4168842C8BF401A8842CA
:10027000C8BFF7E742F210718842C8BF401A8842EF
:10028000C8BFF7E74FF47A718842C8BF401A884266
:10029000C8BFF7E707464FF064018842C8BF401A5D
:1002A0008842C8BFF7E74FF00A018842C8BF401A2A
:1002B0008842C8BFF7E78046B8F1070FC8BF19E00A
:1002C000B8F1000FB8BF15E0A84502BF09F1010958
:1002D00040460BF02DFFA84504BF204600F01CFB54
:1002E000A84504BF40460BF023FFA84504BF2046A5
:1002F00000F012FB4846BDE8F043704700B5DFF858
:1003000030060160DFF82C060160DFF82C064FF0A4
:1003100000010160DFF824064FF0020101605DF882
:1003200004EB704710B5DFF814160868013828DBB5
:100330004FF002000860DFF8FC150868013808601B
:100340001FDCDFF8FC150968088840F47F40DFF8FF
:10035000F4251368002B06BF088001200020012B24
:1003600004BF00240C801060DFF8C805DFF8C0155A
:1003700009680160DFF8C0150868002808BF07F0A9
:1003800061FEBDE81040704700B5DFF8AC154FF0D6
:10039000010008605DF804EB7047DFF8A4150968F8
:1003A000088840F47F420A8000B56FF07F4000F07B
:1003B000B3FA5DF804EBDFF88815096808884FF098
:1003C00000020A80704770B54FF47A7007F010FE93
:1003D00007F028FE4FF00204DFF86C554FF00806D6
:1003E000A6F1010630460BF0A3FE002EF8DC2846ED
:1003F00000F092FA4FF00806A6F1010630460BF025
:1004000097FE002EF8DC284600F086FAA4F10104DD
:10041000002CE3DCDFF820150868002808BF07F08F
:1004200011FED7E7BDE87040704770B504460D4631
:10043000164600F0C4F8DFF814154FEA5424002CD7
:10044000D8BF01240C60DFF808150C60DFF8041534
:100450000D604FF0190106FB01F0DFF8FC2410607D
:10046000BDE870407047F0B5DFF8EC14086801385B
:1004700033DB0860002808BF00F032F8DFF8DC1436
:1004800008680138086028DC00F057F8DFF8D0145D
:100490000860DFF8C0140868DFF8C4140A68DFF8E1
:1004A000AC140C68DFF8A8542B68824206BF013BED
:1004B0002B602C60DFF8A0140868DFF898643768B8
:1004C0004FF00002002B04BF0A6000F012F8DFF8C2
:1004D0008C1408684FF00F000860BDE8F0407047CA
:1004E00000B5DFF8701408680BF022FE5DF804EB2D
:1004F000704770B54FF00204DFF84C544FF0080617
:10050000A6F1010630460BF013FE002EF8DC28465B
:1005100000F002FA4FF00806A6F1010630460BF093
:1005200007FE002EF8DC284600F0F6F9A4F10104DD
:10053000002CE3DCBDE87040704770B54FF032002E
:100540004FF029010BF02EFF45B24FF032004FF073
:100550002B010BF027FF46B2102D03DC15F10A0F1B
:100560000CDB17E0102EC4BF06201BE016F10A0FAB
:10057000DCBF022016E04FF0040013E0102EC4BFD1
:1005800005200FE016F10A0FDCBF01200AE04FF052
:10059000030007E0002EC4BF072003E0002EDCBFED
:1005A0000020FFE704460BF0C3FDEE4800F0B4F96D
:1005B00020460BF0BDFD2046BDE87040704710B5E9
:1005C0004FF00804A4F1010420460BF0A3FD002C19
:1005D000F8DCBDE810407047E3490860704700B59B
:1005E000DD490868013828DD0860DC490868013801
:1005F000086022DCFFF7A1FFD9490860D5490868E7
:10060000D7490A68D1490C68D14D2B68824206BF90
:10061000013B2B602C60D04908680EB5012808BF4B
:10062000FFF75EFFBDE80E40002B08BFFFF761FF3C
:10063000CA4908684FF00100086018465DF804EBED
:10064000704700B5C849086801380ADD0860C74925
:1006500008680138086004DCC44908684FF00100EC
:1006600008605DF804EB704770B54FF032004FF052
:1006700029010BF097FE45B24FF032004FF02B01ED
:100680000BF090FE46B2102D03DC15F1100F0CDBC1
:1006900017E0102EC4BF06201BE016F1100FDCBFC0
:1006A000022016E04FF0040013E0102EC4BF052016
:1006B0000FE016F1100FDCBF01200AE04FF003003D
:1006C00007E0002EC4BF072003E0002EDCBF00209F
:1006D000FFE704460BF02CFDA24800F01DF9204670
:1006E0000BF026FD2046BDE8704070471FB503465D
:1006F000934226D14FF002016FF07F444FF0080083
:10070000A0F1010003B40BF013FD03BC0028F7DCDB
:1007100003B4204600F000F903BC4FF00800A0F13C
:10072000010003B40BF004FD03BC0028F7DC03B4A4
:10073000204600F0F1F803BCA1F101010029DDDC45
:1007400002E010460BF0F4FCBDE81F40704770B5A6
:100750004FF032004FF029010BF024FE45B24FF06C
:1007600032004FF02B010BF01DFE46B2102D03DCC2
:1007700015F1100F0CDB17E0102EC4BF06201BE094
:1007800016F1100FDCBF022016E04FF0040013E05A
:10079000102EC4BF05200FE016F1100FDCBF0120A2
:1007A0000AE04FF0030007E0002EC4BF072003E07B
:1007B000002EDCBF0020FFE704460BF0B9FC6948BF
:1007C00000F0AAF820460BF0B3FCBDE8704070477B
:1007D00000B50FB411F8014B0FB42046A0F1300062
:1007E0000BF0A6FC0FBC0FB441F6583200FB02F030
:1007F00000F092F80FBC0FB418460BF0DFFC054672
:100800000FBC0FB42046A0F130000BF091FC0FBCE0
:100810000FB441F6583200FB02F000F07DF80FBC37
:10082000012D05D011F8014B002CD5D10FBCD0E71C
:100830000FB400F004F80FBCBDE80F4070470FB5CF
:10084000A4F13003934228D14FF0020141F658330E
:1008500000FB03F44FF00800A0F1010003B40BF01B
:1008600067FC03BC0028F7DC03B4204600F054F812
:1008700003BC4FF00800A0F1010003B40BF058FCDA
:1008800003BC0028F7DC03B4204600F045F803BCA5
:10089000A1F101010029DDDC02E010460BF048FC6B
:1008A000BDE80F40704700B510F8011B002909D0C2
:1008B00003B50846A0F130000BF03AFCBDE8034058
:1008C0000029F1D15DF804EB084670470A4603465B
:1008D00007B5104603F1010300F003F8BDE8074037
:1008E00070474FF00801013B04DC5DF804EB5DF854
:1008F00004EB7047013900DCF3E79A464FF000043F
:1009000000B500F009F80C46084600B50BF010FCE5
:10091000214610465346EDE710B40446013CFDDC89
:100920004FF0000010BC7047ACEE0100A086010043
:1009300034000020380000202C0000203C00002063
:10094000280000204000002060F5900004000020F6
:1009500008000020100000200C00002000000020F3
:1009600014000020404B4C00180000201C00002008
:10097000F0B54FF001000BF0DBFB09490868BDE85A
:10098000F040704700B50649086800F101000860B2
:100990005DF804EB704700BF00B500BD7047000074
:1009A0006E000020002301461A46184601F0D8BE0A
:1009B000014B1868704700BF7800002038B50A4C1A
:1009C0000A4D641BA4100AD004F18043013B05EBDF
:1009D0008305013C55F804399847002CF9D1BDE84E
:1009E00038400CF031BA00BFA4CB0108A0CB0108FD
:1009F00070B50D4E0D4D761BB61006D00024013497
:100A000055F8043B9847A642F9D1094E094D761B8B
:100A10000CF014FAB61006D00024013455F8043B4B
:100A20009847A642F9D170BD98CB010898CB010830
:100A3000A0CB010898CB0108F0B4860746D0541E1D
:100A4000002A3CD0CAB2034602E014F1FF3436D388
:100A500003F8012B9D07F8D1032C29D9CDB245EA23
:100A600005250F2C45EA054533D9A4F110063609B2
:100A700003F1200707EB061703F1100242E90455C2
:100A800042E902551032BA42F8D1721C14F00C0F30
:100A900003EB021204F00F0613D0331F23F00303FD
:100AA0000433134442F8045B9342FBD106F0030481
:100AB0002CB1C9B21C4403F8011B9C42FBD1F0BC11
:100AC000704734461346002CF3D1F8E7144603462A
:100AD000C2E71A462646E0E70EB400B582B003AB83
:100AE000816853F8042B019300F012FB02B05DF80B
:100AF00004EB03B0704700BF0FB400B5074983B0E3
:100B000004AB086853F8042B8168019300F000FBE4
:100B100003B05DF804EB04B0704700BF780000201C
:100B2000826804F08FBC00BF034B1B6801469A68C3
:100B3000184604F087BC00BF7800002070B5054659
:100B400088B008460C4600F07BF9154AAB6B04945C
:100B50000126441C04A90692022203940590AC6865
:100B60000796CDE90112B3B1B4F90C309A0406D45A
:100B7000626E43F4005322F40052A3816266214660
:100B8000284601AA03F016F9002814BF4FF0FF30E1
:100B90000A2008B070BD284602F0A2FFE4E700BFBB
:100BA0006CCA0108024B01461868FFF7C7BF00BFB7
:100BB000780000202DE9F043524C256883B00446AC
:100BC0000F4690461E4615B1AB6B002B65D0B8F1B1
:100BD000020F06D0B8F1010F00F29180002EC0F292
:100BE0008E802146284602F075FE216B41B104F14A
:100BF0004003994202D0284602F0E2FF002323631B
:100C0000B4F90C300022A26162601A064DD423F4BC
:100C10004A6323F00303B8F1020FA3814CD001AB68
:100C20006A462146284603F0A3FAA3891843A08107
:100C300016B317B3AB6B63B3009BB4F90C0027601A
:100C4000B3421CBF40F40060A081B8F1010F08BF9F
:100C500040F0010083B208BFA08113F00800C4E98E
:100C600004761ED013F0010035D000207642A66134
:100C7000A06003B0BDE8F083009E304603F0F0FAB8
:100C8000074660B3A38943F08003A381AB6B002BBD
:100C9000D2D1284602F024FFCEE7284602F020FFFA
:100CA00095E7A06003B0BDE8F0832169284602F013
:100CB00087FFB4F90C30AAE7002004F1430243F0A7
:100CC000020300250121A381A5602260C4E904215B
:100CD00003B0BDE8F083A66003B0BDE8F083DDF8A3
:100CE0000090B14506D0484603F0BAFA074608B16D
:100CF0004E46C7E7B4F90C304FF0FF30DDE74FF058
:100D0000FF30CFE77800002030B4104D10F8012BF1
:100D1000AB5C03F00303012B11F8013BEC5C04F026
:100D2000030408BF2032012C06D0D21A0AD1002BAE
:100D3000ECD1184630BC70472033D31AE6D01846A1
:100D400030BC70471346184630BC7047EDD20008DF
:100D500080EA0102844612F0030F4FD111F0030F15
:100D600032D14DF8044D11F0040F51F8043B0BD073
:100D7000A3F101329A4312F0803F04BF4CF8043BC8
:100D800051F8043B16D100BF51F8044BA3F10132D6
:100D90009A4312F0803FA4F101320BD14CF8043B8E
:100DA000A24312F0803F04BF51F8043B4CF8044BBF
:100DB000EAD023460CF8013B13F0FF0F4FEA332330
:100DC000F8D15DF8044B704711F0010F06D011F80F
:100DD000012B0CF8012B002A08BF704711F0020FFD
:100DE000BFD031F8022B12F0FF0F16BF2CF8022BE8
:100DF0008CF8002012F47F4FB3D1704711F8012B0B
:100E00000CF8012B002AF9D1704700BF0000000048
:100E100000000000000000000000000000000000D2
:100E200000000000000000000000000000000000C2
:100E300000000000000000000000000000000000B2
:100E400090F800F06DE9024520F007016FF0000C0A
:100E500010F0070491F820F040F049804FF00004B2
:100E60006FF00700D1E9002391F840F000F108008D
:100E700082FA4CF2A4FA8CF283FA4CF3A2FA8CF3C5
:100E80004BBBD1E9022382FA4CF200F10800A4FA2C
:100E90008CF283FA4CF3A2FA8CF3E3B9D1E9042380
:100EA00082FA4CF200F10800A4FA8CF283FA4CF3B7
:100EB000A2FA8CF37BB9D1E9062301F1200182FA71
:100EC0004CF200F10800A4FA8CF283FA4CF3A2FA77
:100ED0008CF3002BC6D0002A04BF04301A4612BA85
:100EE000B2FA82F2FDE8024500EBD2007047D1E988
:100EF000002304F00305C4F100004FEAC50514F017
:100F0000040F91F840F00CFA05F562EA05021CBFE7
:100F100063EA050362464FF00004A9E7024B1A6832
:100F200001235C3200F002B878000020F0B418B35E
:100F300007460D4617F8016B01E0A64217D015F8D9
:100F4000014B002CF9D1E6B117F8015B0C4601E02A
:100F5000002BF9D014F8013B9D42F9D155B1002383
:100F600007F8013C176006463046F0BC704763B195
:100F70003846DDE72F46F5E710680028D8D1064649
:100F8000F2E730461660F0BC704717600646037003
:100F9000EAE700BF0123FFF7C9BF00BF2DE9F04713
:100FA0000F464C4D00E06746BC461CF8014B2E5DD9
:100FB00016F00806F7D12D2C58D02B2C0ABF9CF820
:100FC0000050254607F1020CF3B3102B54D04FF01C
:100FD000FF38B8FBF3F803FB08FA6FEA0A0A9946F0
:100FE0000027BE4607E0C64513D828D009FB0E4EA1
:100FF00001271CF8015BA5F13004092C05D9A5F1E6
:101000004104192C08D8A5F13704A3420CDD002FA8
:10101000E9DA4FF0FF37ECE7A5F16104192C03D8AA
:10102000A5F15704A342F2DC002F16DB0EB1CEF17E
:10103000000E0AB1BFB911607046BDE8F087544593
:10104000D4DD4FF0FF37D4E7302D29D00A2399465D
:101050004FF0050ADFF88080C2E7222303604FF0DB
:10106000FF3E002AE8D00CF1FF31E4E79CF8005085
:10107000012607F1020CA7E7302D24D19CF800408F
:1010800004F0DF04582C18D14FF010099CF80150DF
:101090004B464FF00F0A0CF1020C6FF070489FE7BF
:1010A0009CF8003003F0DF03582BEDD0082399465D
:1010B0004FF0070A6FF0604892E799466FF070486A
:1010C0004FF00F0A8CE74FF00F0A6FF07048994607
:1010D00086E700BFEDD20008999999195EE700BF35
:1010E00010B4044C13460A46014620685DF8044BD0
:1010F00054E700BF7800002010B4044C13460A46A1
:10110000014620685DF8044B48E700BF78000020E6
:101110002DE9F04FBFB01C4604919146054608905A
:1011200003F01EF8036811931846FFF789FE09942F
:101130000F901DB1AB6B002B00F067830499B1F9E0
:101140000C2093B29E04084607D4496E42F4005323
:1011500021F40051838141669BB21D0740F1D0808C
:10116000049A1269002A00F0CB8003F01A030A2BBC
:1011700000F0D4809FED9A7B00238DED0C7B0E93C5
:10118000CDE922331093129305932EAB21939A4607
:1011900099F80030002B00F0DD80252B00F0BE8692
:1011A0004D4603E0252B00F0C78025466B786C1C6C
:1011B000002BF7D1B4EB090600F0CC80DDE9223238
:1011C00001333244072BCAF80090CAF80460CDE915
:1011D000223200F3B6800AF1080A059A6B7832448D
:1011E0000592002B00F0B680002367788DF86730F9
:1011F0001A46194606939B4604F101094FF0FF3643
:1012000009F10109A7F12003582B00F20283DFE85E
:1012100013F0DA0200030003E202000300030003FC
:101220000003000300032902BC020003B702C1024D
:101230000003C000B100B100B100B100B100B100C5
:10124000B100B100B100000300030003000300037C
:10125000000300030003000300039D02510200038A
:10126000510200030003000300034C0200030003CB
:10127000680000030003000300030003590000039B
:101280000003340200030003000300030003000313
:101290000003000300030003AE0174015102510278
:1012A00051026F01740100030003620100034C014D
:1012B0006A001C0117010003ED0000035B0000033E
:1012C0000003C5004BF0100B1BF0200F00F09282C2
:1012D000099C073424F00703F3E80245099301232E
:1012E000C3E04BF0100B1BF0200300F07982099C47
:1012F000073424F00703F3E8024509930023B4E020
:101300000499089801F0C4F9002841F01381049B66
:101310009B8903F01A030A2B7FF42CAF049BB3F9CB
:101320000E30002BFFF626AF23464A460499089854
:1013300001F078F9059019E0B4EB09063FF454AFD9
:101340003CE721AA0499089804F010FB48B90DF174
:10135000B80A42E7239B23B10898049921AA04F014
:1013600005FB049B9B895A0601F1E48005983FB078
:10137000BDE8F08FA7F13003002019F8017B00EBE6
:10138000800003EB4000A7F13003092BF5D906904C
:1013900038E74BF0800B99F8007031E7002A41F0F4
:1013A000B180114B10931BF0200F00F06F81099C4E
:1013B000073424F00703F3E8024509931BF0010FFB
:1013C00000F0388254EA050300F0348230238DF8AF
:1013D00068308DF869704BF0020B022345E000BFC6
:1013E000000000000000000094CA0108099C54F8A5
:1013F000043B0A9300258DF86750002B00F07F8690
:10140000711C00F05387324629460A9803F0F0F920
:10141000002801F059800A9BC31A07932E4623EA3D
:10142000E3739DF867800994CDF808B003930B9699
:10143000B8F1000F00F0AD80039B01330393A8E0E7
:101440004BF0200B99F80070DAE6099C54F8043B45
:10145000099447F630021C46B74B1093ADF868204C
:101460004BF0020B0025022378274FF000088DF87F
:101470006780721C00F0E2812BF08002029254EA35
:10148000050240F0D981002E40F01284002B40F07C
:10149000DC841BF00103079300F0498530238DF8AD
:1014A000B7300DF1B7030A9359E0002A41F03280BA
:1014B000099A1BF0200F52F8043B099240F03B853B
:1014C0001BF0100F40F054861BF0400F00F05086C8
:1014D000059A1A805CE699F800706C2F03BF99F8A2
:1014E00001704BF0200B09F101094BF0100B87E65E
:1014F0004BF0400B99F8007082E6002A41F0128010
:101500001BF0200F00F02B81099C073424F0070307
:101510001946F1E80223099114461D46002A73F189
:101520000003C0F2F184731C9DF8678008D02BF093
:101530008003029354EA050300F08484DDF808B0C8
:10154000002D08BF0A2C80F0548401233034079307
:101550000DF1B7038DF8B740CDF808B00A93079B9B
:10156000B342B8BF3346039300230B9360E7099C53
:10157000002354F8042B8DF890208DF86730012259
:1015800024AB0392099407920A930026CDF808B081
:101590000B96029B13F0020302D0039A02320392CD
:1015A000029A239C12F0840B05D1069A0399551ACE
:1015B000002D00F3E8829DF8672072B1229A013273
:1015C00001340DF167000121072ACDE92224CAE97F
:1015D000000100F31A830AF1080A6BB1229B013360
:1015E00002341AA90222072BCDE92234CAE90012DB
:1015F00000F319830AF1080ABBF1800F00F0A881FB
:10160000079BF61A002E00F3EC81029BDB0500F12C
:101610004281229B0A9ACAF80020079ACAF804203D
:1016200001331444072B2394229300F34E820AF1D2
:10163000080A029B590705D5069B039A9D1A002D9F
:1016400000F3FD82DDE9053203998A42ACBF9B18A5
:101650005B180593002C40F0FE81002322930DF1CE
:10166000B80A95E5099B99F8007053F8040B0690A9
:101670000028C0F216850993C2E5002A40F056877B
:101680002E4B10931BF0200F7FF491AE099B1BF0A3
:10169000100F53F8044B099340F02B841BF0400FBC
:1016A00000F02784A4B2002588E64BF0080B99F8D7
:1016B0000070A5E5002A40F02987099C073424F032
:1016C0000703B3EC027B55EC174B099325F000435D
:1016D00015938DED147ADDE914014FF0FF32184BAC
:1016E0008DED0C7B06F072F8002840F02B844FF053
:1016F000FF32134BDDE9140106F04AF8002840F0F0
:101700002184002200232046294606F037F80028CD
:1017100040F03E869DF867800A4A0B4B0321002665
:101720002BF08000472FC8BF1A46039102900A92FF
:1017300007910B967CE600BF94CA010880CA010895
:10174000FFFFEF7F70CA010874CA0108002A40F049
:10175000E5864BF0100B1BF0200F7FF4D5AE099BF4
:101760001BF0100F53F8044B099340F0C5831BF096
:10177000400F00F0C18324B2E51722462B46CDE688
:1017800099F800704BF0040B3AE599F800700122CB
:101790002B2135E5484610F8017B2A2F00F02387DE
:1017A000A7F13003092B81464FF000063FF62AAD22
:1017B00019F8017B06EB860603EB4606A7F130031A
:1017C000092BF5D91EE599F8007000297FF418ADB2
:1017D0000122202114E54BF0010B99F800700FE570
:1017E000099A52F8044B09921BF0100200F0518440
:1017F00000253AE6099B1BF0100F53F8044B0993A0
:1018000000F03F84002501232FE6089802F068F9D4
:1018100094E4002A40F0D685002F3FF49BAD0023CE
:1018200001228DF8673024AB03928DF890700792F7
:101830000A93AAE6022318E6DDF808B0012B3FF46C
:101840007FAE022B00F03C822EA900E01146E20898
:1018500042EA4572E80804F00703054614463033AF
:1018600054EA050001F8013C01F1FF32EED11BF012
:10187000010F0A9200F0DF82302B00F04B840A9AAD
:10188000CDF808B03023023902F8013C2EAB5B1AC8
:1018900007930A9163E6652F40F32381002200231A
:1018A000DDE90C0105F060FF002800F02282229B98
:1018B000BC4ACAF80020013301340122072BCDE9CC
:1018C0002234CAF8042000F39D840AF1080A1B9B05
:1018D0000E9A239C934280F22483229B119ACAF889
:1018E00000200F9ACAF8042001331444072BCDE9D5
:1018F000223400F3F7830AF1080A0E9B5D1E002DC7
:101900007FF797AE102D229ADFF89CB240F37084D7
:101910001026089FDDF8108005E00AF1080A103D46
:10192000102D40F3658401321034072ACDE92224BA
:10193000CAE900B6F1DD21AA4146384604F016F89E
:1019400000287FF40EADDDE922240DF1B80AE6E7A8
:10195000069B039A9D1A002D7FF752AE102D229AF6
:10196000DFF844B22DDD584653462146CA46BB46F1
:10197000B1464FF01008089C049E074604E0103D55
:10198000102D03F1080315DD01321031072ACDE9CE
:101990002221C3E90078F2DD21AA3146204603F076
:1019A000E5FF00287FF4DDAC103D102DDDE922219C
:1019B0002EABE9DC4E46D1469A463B460C465F4686
:1019C0009B4601322C44072ACDE92224CAE900B5FE
:1019D00000F32484079BF61A002E0AF1080A7FF709
:1019E00014AE102E229ADFF8C0B128DD59462346E6
:1019F000BB461025DDF82080049C0F4604E0103E15
:101A0000102E0AF1080A16DD01321033072ACDE93B
:101A10002223CAE90075F2DD21AA2146404603F0DF
:101A2000A5FF00287FF49DAC103E102EDDE9222397
:101A30000DF1B80AE8DC1C463B465F469B46013286
:101A40003444072ACDE92224CAE900B600F34482CF
:101A50000AF1080AD9E521AA0499089803F086FF3B
:101A600000283FF4FAAD7CE421AA0499089803F019
:101A70007DFF00287FF475AC1B9B239C0DF1B80AF9
:101A8000002B40F0D883029B0E9A03F0010313430E
:101A90003FF4CFAD229A119BCAF800300F9BCAF8D1
:101AA000043001321C44072A2394229200F39E84BE
:101AB0000AF1080A0E9B0A9901321C44072ACDE953
:101AC0002224CAE900137FF7B2AD21AA049908982D
:101AD00003F04CFF00287FF444AC239C0DF1B80ABE
:101AE000A7E50E9A229B012A04F1010403F10105E6
:101AF0000AF1080640F3AF8101230A9ACAF80020D0
:101B0000072DCDE92254CAF8043000F345830F9B1A
:101B1000119A01351C44072DCDE92254C6E9002352
:101B200000F32E8308366B1C1F46B8460E9F0793A2
:101B300000220023DDE90C0106F1080A013F05F04F
:101B400013FE002840F09B810A9B776001333C44E0
:101B5000B8F1070F33602394CDF8888000F3B28288
:101B600006F1100305F1020856469A46129A726071
:101B700014441DABB8F1070F2394CDF8888033606F
:101B80007FF757ADA1E7102D229A31DD514620464F
:101B9000CA464FF01008B14613932E46089C049D88
:101BA00009E000BFB0CA010804D40008103E102E9E
:101BB00001F1080116DD0132C54B1030072ACDE9CD
:101BC0002220C1E90038F1DD21AA2946204603F090
:101BD000CDFE00287FF4C5AB103E102EDDE922209B
:101BE0002EA9E8DC139B354604464E46D1468A466C
:101BF0000132B7492C44072ACDE92224CAE900154D
:101C000000F3D6820AF1080AD5E421AA04990898BB
:101C1000139303F0ABFE00287FF4A3AB239C139B2C
:101C20000DF1B80AD9E421AA0499089803F09EFEA0
:101C300000287FF496AB239C0DF1B80ADCE4102D4C
:101C4000229B21DD1026089FDDF8108004E0103D66
:101C5000102D0AF1080A17DD01339D4A1034072BB5
:101C6000CDE92234CAE90026F1DD21AA41463846F1
:101C700003F07CFE00287FF474AB103D102DDDE9ED
:101C800022340DF1B80AE7DC0133914A2C44072BCA
:101C9000CDE92234CAE900257FF7D4AC21AA049902
:101CA000089803F063FE00287FF45BAB239CC9E433
:101CB000012B00F0B583022BDDF808B07FF4C4AD32
:101CC000DDF840C02EAA230904F00F0043EA057393
:101CD00029091C460D461CF8003002F8013D54EA63
:101CE0000503F0D12EAB9B1A0A92CDF808B00793EA
:101CF00035E41B9B002B40F36A820E9B0B9A9342A8
:101D0000A8BF1346002B1D460EDD229B0A9ACAF877
:101D1000002001332C44072B2394CAF8045022934B
:101D200000F3B5830AF1080A0B9B002DA8BF5B1BCB
:101D3000002B1D4600F3F6811B9A0E9B9A4280F2FF
:101D4000B581229B1199CAF800100F99CAF80410A6
:101D500001330C44072B2394229300F326830AF1CA
:101D6000080A0B990E9B9142A3EB020380F20482B6
:101D70001D46002D10DD229ACAF80450DDE90A1034
:101D8000013201442C44072ACAF80010CDE922246C
:101D900000F38B830AF1080A002DACBF5D1B1D46C2
:101DA000002D7FF746AC102D229ADFF828B140F3C2
:101DB0001F821026089FDDF8108005E00AF1080A4E
:101DC000103D102D40F3148201321034072ACDE962
:101DD0002224CAE900B6F1DD21AA4146384603F0C3
:101DE000C5FD00287FF4BDAADDE922240DF1B80A63
:101DF000E6E72EABCDF80890C146B0461E4601E09E
:101E000004460D460A2200232046294605F01CFD03
:101E1000303206F8012D00230A222046294605F01B
:101E200013FD002D08BF0A2CEAD232460A96464618
:101E3000C846DDF80890CDF808B02EAB9B1A079382
:101E4000FFF78DBB002E40F0EB8200262EAB0796ED
:101E50000A93FFF784BB029AD0073FF54DAE0122EB
:101E60000A99CAF80010072DCDE92254CAF80420B7
:101E700000F3288103F102080AF1100A76E6002F28
:101E80007FF774AE102FDFF84CB040F3AA832346DF
:101E90004FF01008DDF820A0049C079D05E00836EF
:101EA000103F102F40F30A8201351033072DCDE982
:101EB0002253C6E900B8F2DD21AA2146504603F0BC
:101EC00055FD00287FF44DAADDE922532EAEE7E749
:101ED000F4D3000804D4000821AA0499089803F058
:101EE00045FD00287FF43DAA239C0DF1B80AFFF7B9
:101EF0008CBB0025FFF762BAE51722462B46002A65
:101F000073F10003BFF60FAB4FF02D08644265EB91
:101F100045058DF867800123FFF7ABBA4C46FFF704
:101F200063B9029BDE073FF5D8ACFFF782BB2EAB4F
:101F30000A93FFF714BB059A1046D117C3E90001B5
:101F4000FFF726B9DDE90C0102460B4605F03EFC21
:101F5000002840F02C83741C27F0200500F0A38299
:101F6000472D00F03F82DDE90C014BF4807200291F
:101F70000292C0F213829DED0C7B8DED167B002347
:101F80001393662F00F0B881462F00F0B581452DE0
:101F900000F04A821FAA1CABCDE9003202211BAB24
:101FA00032469DED160B089800F0A0FC672F0A90B2
:101FB000344640F047821BF0010F40F046821B9AE6
:101FC0001F9B0B920A9A472DA3EB02030E9306D197
:101FD0000B9BD81C02DB9E4280F24B82023F0B9B84
:101FE0008DF874705A1E002A1B92B6BFC3F101020D
:101FF0002B232D23092A8DF8753040F3B8820DF17B
:1020000083042046B84D01E008461A4685FB02319C
:10201000D317C3EBA10303EB8301A2EB41013031E2
:10202000632A00F8011C00F1FF31EDDC3033821E21
:10203000DBB2944201F8013C40F2E0820DF17602FD
:1020400001E011F8013B02F8013B8C42F9D10DF19E
:1020500085030DF176021B1A13441DAA9B1A1293D5
:102060000E9A129B012A1344079340F39282079B16
:102070000F9A1344079323EAE373039300230B930C
:1020800072E11BF0400F18BFA4B200250123FFF737
:10209000ECB91BF040031CBF1346A4B20025FFF7A8
:1020A000E4B9404206900993FFF76CBB029BDD0741
:1020B0003FF547AE0B990E9B8A42A3EB02035BDD13
:1020C0001D4669E621AA0499089803F04FFC0028F0
:1020D0007FF447A9DDE922340DF1C00A03F10108BC
:1020E0002EAE43E521AA0499089803F03FFC00288E
:1020F0007FF437A9239C0DF1B80AFFF7FEBB062E2B
:10210000334628BF062307930393784B09940A9319
:10211000FFF73BBA0A9ACDF808B02EAB9B1A07938B
:10212000FFF71DBA102B229ADFF8C8B140F32581C2
:102130001026089FDDF8108005E00AF1080A103D1E
:10214000102D40F31A8101321034072ACDE92224E0
:10215000CAE900B6F1DD21AA4146384603F006FC83
:1021600000287FF4FEA8DDE922240DF1B80AE6E795
:10217000059A1A60FFF70CB80E9A0B99551AF8E5F4
:1021800021AA0499089803F0F1FB00287FF4E9A83C
:10219000DDE922542EAEC6E421AA0499089803F082
:1021A000E5FB00287FF4DDA8DDE922542EAEAEE485
:1021B00021AA04990898139303F0D8FB00287FF410
:1021C000D0A8239C139B0DF1B80AFFF7F4B9229A0B
:1021D0004749CAF80010013201340121072ACDE92C
:1021E0002224CAF804103FF73FAC0AF1080A47E47A
:1021F00001322C44072ACDE92224CAE900B57FF731
:1022000016AA62E421AA0499089803F0AFFB0028FB
:102210007FF4A7A80DF1B80AFFF759BB21AA0499CA
:10222000089803F0A3FB00287FF49BA8239C0DF1E2
:10223000B80AFFF7E5B9229A1199CAF800100F9968
:10224000CAF8041001320C44072A2394229200F3A6
:10225000CD800AF1080A002BBFF62CAC5D4210338A
:10226000DFF890B080F26C815F461026DDF81080B8
:10227000DDF820B005E00AF1080A103D102D40F30A
:102280005E8101321034072ACDE92224CAE90076A2
:10229000F1DD21AA4146584603F068FB00287FF48F
:1022A00060A8DDE922240DF1B80AE6E70A98FEF7F6
:1022B000C7FD2E4603460790FFF7B1B81C4605F14F
:1022C000010806F108023C44B8F1070F2394C6E95F
:1022D00000B7CDF888803FF7F5AE08F1010802F1AC
:1022E000080A164642E400BF67666666A8CA010887
:1022F000B0CA010804D400081FAA1CABCDE9003203
:1023000003211BAB32469DED160B089800F0EEFA48
:102310000A900A9B1B78302B00EB060456D01B9BBF
:102320001C4400220023DDE9160105F01DFA0028F7
:1023300000F08E8023460A9A9B1A0E93472D1B9B12
:102340000B933FF445AE662F7FF449AE0B9A0BF02A
:102350000103002A43EA060340F33681002B40F0D4
:1023600021810B9B03930793139B002B7CD02D2380
:102370008DF867300026FFF75FB801322C44072A3A
:10238000CDE92224CAE900B53EDC0AF1080AD3E40B
:102390004FF02D088DF86780FFF7BEB901F10043BB
:1023A00017932D2316901393EBE521AA049908980F
:1023B00003F0DCFA00287EF4D4AF1B9A239C0DF1C5
:1023C000B80ACEE48DF86710FFF726BA0022002382
:1023D000DDE9160105F0C8F90028A0D1C6F1010316
:1023E0001B939DE7002E08BF0126BCE521AA049996
:1023F000089803F0BBFA00287EF4B3AF1B9BDDE91D
:1024000022240DF1B80A26E721AA0499089803F0BE
:10241000ADFA00287EF4A5AF239C0DF1B80A8BE439
:10242000DDF808B0FFF791B81FA91CAB741CCDE90B
:10243000003122461BAB02219DED160B089800F0DF
:1024400055FA0A90472F3FF4B6AD0A9B1C4468E743
:102450001F9BA342BFF46FAF30215A1C1F9219700B
:102460001F9B9C42F9D866E79DF86780139EFEF794
:10247000DFBF0E9B19460B9B994230DC1BF0010F0E
:102480007ED123EAE3720392079367276CE721AAC0
:102490000499089803F06AFA00287EF462AF239C3E
:1024A0000DF1B80A40E406265DE521AA04990898D2
:1024B00003F05CFA00287EF454AF1B9B0E9A239C19
:1024C000D31A0DF1B80A67E40396079609940646F5
:1024D000CDF808B00B909DF86780FEF7A9BFDDE945
:1024E0000E3213440B9A0793002A06DC0B9B079AC3
:1024F000C3F101031A441346079223EAE3730393DB
:10250000672731E78DF86710FEF74BBF8DF867102E
:10251000FFF7D3B88DF86710FEF7CABF8DF86710C4
:10252000FFF717B98DF86710FEF7EABF8DF867104F
:10253000FFF7A6B84FF0FF330593FEF717BFBB4672
:1025400001322C44072ACDE92224CAE900B57FF7DD
:10255000AFAA21AA0499089803F008FA00287EF48B
:1025600000AFDDE922240DF1B80AFFF7A3BA30234A
:1025700030328DF8763004238DF8772012936FE592
:102580000B9B0F9A1344079323EAE3730393672784
:10259000EAE61BF001020B927FF469AD23EAE373D4
:1025A0000393E1E60F9BD31833440793F6E70D9BA3
:1025B000144A002BB6BF4FF02D089DF867808DF8A8
:1025C0006780114BFFF7AAB81BB901230393079348
:1025D000CAE60F9B01333344079323EAE373039363
:1025E000C2E652466FE6099B99F8017053F8046BF6
:1025F0000993814646EAE676FEF702BE022312936D
:102600002EE500BF78CA01087CCA010810B4044C4A
:1026100013460A46014620685DF8044BFEF778BD74
:1026200078000020F0B50C46ADF26C4D8989666EDD
:10263000E589199621F00201666AADF80E50002571
:10264000E769ADF80C10099606951AAE4FF480654F
:102650006946009604960295059507970646FEF78B
:1026600057FD051E07DB3046694601F033F90028A7
:1026700018BF4FF0FF35BDF80C305B0603D5A389BA
:1026800043F04003A38128460DF26C4DF0BD00BF1E
:1026900038B5324B1B6805460C460BB19A6B12B32A
:1026A000B4F90C2093B2180725D5206900282DD045
:1026B00013F0010207D0636900225B42A361A260AC
:1026C00038B1002038BD990758BF6269A260002860
:1026D000F7D1B4F90C301A06F4D543F04003A381C6
:1026E0004FF0FF3038BD184601F0FAF9B4F90C206C
:1026F00093B21807D9D4D90628D5580712D420691F
:1027000042F00803A3819BB20028D1D103F42072C8
:10271000B2F5007FCCD02846214601F057FDA389B1
:102720002069C5E7216B51B104F14003994204D0FF
:10273000284601F045FAB4F90C2000232363002356
:102740002069636022F024022060D9E742F0400251
:1027500009232B604FF0FF30A28138BD78000020A4
:10276000F0B4184C2568D5F8484114B365681F2D9E
:1027700024DC38B9AB1C0135656044F82310002017
:10278000F0BC704704EB85060127C6F8882007FADD
:1027900005F2D4F88871022847EA0207C4F8887164
:1027A000C6F80831E6D1D4F88C311A43C4F88C212C
:1027B000E0E705F5A674C5F84841D7E74FF0FF30CC
:1027C000DEE700BFF0D300082DE9F04F03690F6981
:1027D000BB4283B0C0F28680013F01F1140600F1D4
:1027E000140A56F827305AF82720BC000133009409
:1027F00006EB04099A425444B2FBF3F801943AD32D
:1028000000252A46B646D4465EF8044BDCF8003074
:102810001FFA84FB08FB0B554FEA154B240C08FBF1
:1028200004B4ADB2551BA2B2C2EB134215FA83F346
:1028300002EB23429BB243EA0243F1454FEA1445BF
:102840004CF8043B4FEA2242DED2009B5AF8033098
:102850008BB9019A131F9A450CD252F8043C4BB91C
:10286000A2F1080302E01A68043B1AB99A4507F17D
:10287000FF37F8D30761044602F0A6FB00282DDBE2
:1028800008F101085046002356F8041B05688AB277
:102890009A1A0B0C12FA85F2C3EB154303EB224391
:1028A00092B242EA0342B14540F8042B4FEA234377
:1028B000EAD25AF827200AEB87037AB91A1F924501
:1028C0000BD253F8042C42B9083B02E01A68043BCF
:1028D0001AB99A4507F1FF37F8D32761404603B08C
:1028E000BDE8F08F002003B0BDE8F08F2DE9F04F78
:1028F00057EC106B97B0056C209C039182460A92AE
:102900000793CDE9006755B1426C6A60012393409B
:10291000AB60294602F0E8F80023CAF840303E1EBA
:10292000B4BF012300232360754BBCBF26F00046D3
:102930000196B34300F0AE809DED007B00220023A2
:1029400051EC170B8DED047B04F00EFF054678B1BA
:10295000079A01231360219B002B00F01083694B21
:10296000219A1360013B0293029817B0BDE8F08FE3
:10297000DDE9047814AA15A948EC107B504602F052
:1029800057FC340D834640F09B80DDE914542C4401
:1029900004F23243202B40F3BA83C3F140039E403C
:1029A000009B04F2124023FA00F0304304F0FAFBDB
:1029B000A1F1F87301210246013C0E91104619461F
:1029C0000022514B04F0B0FA47A3D3E9002304F0EE
:1029D00063FC47A3D3E9002304F0A8FA0646204687
:1029E0000F4604F0EFFB44A3D3E9002304F054FCAA
:1029F00002460B463046394604F098FA06460F4622
:102A000004F0FAFE0022814600233046394604F0E5
:102A1000B5FE002840F0A6822C1BB9F1160F04F178
:102A2000FF3800F29382394B03EBC903D3E900234B
:102A3000DDE9040104F0A2FE00286DD00023B8F106
:102A4000000F09F1FF390D93C0F28682002309932C
:102A5000B9F1000F66DA099BCDF81890A3EB0903D2
:102A60000993C9F100030C93039B092B4FF0000954
:102A700060D8052B40F34983043B03930024039B58
:102A8000023B032B00F25186DFE813F06804650473
:102A90003E045804079A42F20F731360009BC6F37A
:102AA0001306334318D1219B002B00F03586184BB9
:102AB00002930833219A0298136017B0BDE8F08F93
:102AC000C8F3130141F07F530E953A46A4F2FF3448
:102AD00043F44013149D71E7219B002B40F00384C5
:102AE0000C4B029340E700BF61436F63A787D23F5F
:102AF000B3C8608B288AC63FFB799F501344D33FED
:102B00000000F07FB1CA01080000F83F28D4000897
:102B1000B8CA0108B4CA0108B8F1000FC0F2BE84F7
:102B20000D90099000230C93039BCDF81890092B6E
:102B3000C8449ED9002301240393CDE90A344FF001
:102B4000FF3308930021089BCAF844100F935046A6
:102B500001F0A4FF0290002800F0F085029BCAF863
:102B60004030089B0E2B00F20A81002C00F00781F8
:102B70000699002940F36884B14B01F00F0203EB82
:102B8000C20393ED007B0C11E2068DED107B40F14A
:102B90000884AC4BDDE90401D3E9082304F0A6FC6A
:102BA000CDE9000104F00F0403267CB1DDE910013A
:102BB000A44DE30704D5D5E9002304F06DFB0136ED
:102BC000641005F10805F4D1CDE91001DDE900013B
:102BD000DDE9102304F08AFCCDE900010D9B53B11F
:102BE000DDE900450022984B2046294604F0C6FD49
:102BF000002840F02785304604F0E4FADDE90023A0
:102C000004F04AFB914B002204F090F9089B044623
:102C1000A1F15075002B00F0FB83069B1293089BDB
:102C20001093DDE900673946304604F0E5FD009079
:102C300004F0C8FA02460B463046394604F074F9EF
:102C40007F4B009A0F461099064603EBC1030B9881
:102C500002993032CDE90045D5B24C1C53E902232C
:102C6000002800F097840020794904F03FFCDDE95A
:102C7000002304F059F9029B32461D703B46CDE912
:102C8000000104F099FD002840F0D48432463B4610
:102C900000206D4904F048F902460B46DDE90001C9
:102CA00004F08AFD002840F03285109B012B62D091
:102CB000029ACDF840901344CDF84C80DDE90089AC
:102CC000CDF800B0D3469A460EE032463B4600208F
:102CD0005D4904F029F942464B4604F04FFD0028B7
:102CE00040F0EE8454453FD0404649460022594BBF
:102CF00004F0D2FA0022574B8046894630463946C6
:102D000004F0CAFA0F46064604F076FD054604F0C4
:102D100059FA02460B463046394604F005F930357B
:102D2000EDB204F8015B42464B4606460F4604F0FE
:102D300025FD0028C9D0129BDA460133DDF800B02A
:102D400006935946504601F0CFFE00232370079B9F
:102D50001A46069B1360219B002B3FF405AE029898
:102D60001C6017B0BDE8F08FDA46DDF84090DDF862
:102D70004C80DDF800B0DDE90434CDE90034159B6A
:102D8000002BC0F2C680069A0E2A00F3C2802C4B9C
:102D900003EBC203D3E900890A9B002B17DA089FD3
:102DA000002F14DC40F04D8300222B4B4046494657
:102DB00004F072FADDE9002304F0F4FC002800F0CE
:102DC000C483089F3D460A9B029CDB435FE2DDE92A
:102DD000004542464B462046294604F087FB04F056
:102DE0000BFD0646009004F0EDF942464B4604F018
:102DF00053FA02460B4620462946029C354630359A
:102E000004F092F8069E04F8015B089D0136012D3E
:102E100002460B46069652D000220E4B04F03CFAB6
:102E20000022002306460F4604F09EFC002888D1AD
:102E3000CDF800B00125DDF820B0CDF80CA01AE0E7
:102E400028D4000818D500080000F03F00001C40FE
:102E50000000E03F00002440000014400022B94B75
:102E600004F01AFA0022002306460F4604F07CFC08
:102E7000002840F0608342464B463046394604F015
:102E800035FB04F0B9FC824604F09CF942464B46FF
:102E900004F002FA02460B463046394604F044F884
:102EA00001350AF13006AB4502460B4604F8016BCA
:102EB000D4D1DDF800B0CDF800A0DDF80CA01046AC
:102EC000194604F033F842464B4606460F4604F0D6
:102ED00073FC60B942464B463046394604F044FC28
:102EE00000283FF42EAF009BD9077FF52AAF14F8D6
:102EF000015C029A631E04E09A4200F0C98313F851
:102F0000015D392D03F10104F6D06A1CD2B21A70AA
:102F100017E70B9A002A38D0039A012A40F3568209
:102F2000089B5E1E0C9BB342C0F235829E1B089B21
:102F3000002BC0F20583099A14461A44984409925A
:102F40000121504601F0D2FE054621E00123B8F1EF
:102F5000000F0D93BFF67AADC4F1010309934FF052
:102F6000000875E5484604F02DF932463B4604F06A
:102F7000FBFB00287FF450AD09F1FF394CE5724BA3
:102F80000293029817B0BDE8F08F0C9E099C0B9D30
:102F9000002C0CDDB8F1000F09DD4445099A2346E9
:102FA000A8BF4346D21A0992E41AA8EB03080C9B67
:102FB000D3B10B9B002B00F08F81002E10DD294632
:102FC0003246504601F04EFF5A46014605465046ED
:102FD00001F0A2FE59460746504601F085FDBB466A
:102FE0000C9B9A1B40F079810121504601F07EFE36
:102FF000B9F1000F074600F39080039B012B40F3CB
:10300000778100260120B9F1000F40F09180404403
:1030100010F01F0077D0C0F12003042B40F3808311
:10302000C0F11C00099B0344099304448044099B9C
:10303000002B05DD59461A46504601F05FFF8346D6
:10304000B8F1000F05DD39464246504601F056FF03
:1030500007460D9B002B40F02481089B002B40F37A
:10306000FB800B9B002B7FD1069B01330693029CB8
:10307000DDF82080012607E0594600230A22504649
:1030800001F03CFD0136834639465846FFF79CFB6C
:10309000B04500F1300004F8010BEDDC03464FF0C1
:1030A0000009594601225046009301F027FF394696
:1030B000834601F089FF002814F8012C40F3788141
:1030C000631E029904E0994200F08D8113F8012DEE
:1030D000392A03F10104F6D001321A7039465046FC
:1030E00001F002FD002D3FF42CAEB9F1000F05D028
:1030F000A94503D04946504601F0F6FC2946504602
:1031000001F0F2FC1DE61C208CE70124B7E4C3F1BA
:103110002006009B03FA06F048E401464A46504662
:1031200001F0A0FE039B012B074640F3B981002666
:103130003B6907EB8303186901F088FDC0F12000AB
:1031400065E700BF00002440B0CA010829460023FB
:103150000A22504601F0D2FC0F9B002B054640F39B
:10316000CE82CDF818800893002C00F30D81002E3C
:1031700040F0CA81A846009B0399029E03F0010219
:103180000B920A430A92089A731E1A44099239460E
:103190005846FFF719FB29460090584601F014FFE6
:1031A000424681463946504601F02AFF009BC268DC
:1031B00004463033002A41D101465846089301F0B5
:1031C00003FF21460490504601F08EFC049A089BB0
:1031D0001AB90A99002900F07A82B9F1000F06F1B4
:1031E0000104C0F27481039941EA09090B9951EA7B
:1031F000090100F06C81002A00F3A981099A33705B
:10320000B24200F0B081594600230A22504601F034
:1032100075FC4545834629464FF000034FF00A02EE
:10322000504613D001F06AFC4146054600230A22AD
:10323000504601F063FC26468046A8E7014650460A
:10324000049301F051FC0122049BC6E701F056FCF7
:103250002646054680469AE7039B022B40F3818071
:10326000089B002B7FF4AFAD39460522504601F094
:1032700045FC01460746584601F0A6FE00287FF7A8
:10328000A2AD029C069B312204F8012B01330133CD
:1032900039465046069301F027FC002D7FF42EAFEF
:1032A0004FE53946584601F08FFE0028BFF6D5AEEF
:1032B000594600230A22504601F020FC069B03F1E8
:1032C000FF380B9B8346002B7FF440AF0F9B002BF6
:1032D00040F30A820893CAE60C9A5946504601F018
:1032E000C1FD834680E6A54B02930333FFF7E2BBA3
:1032F000DDE9001200297FF484AEC2F31303002B32
:1033000000F0D980009E7DE601230B930A9D002DDD
:1033100049DD0F9508950021172DCAF844107FF755
:1033200016AC012204235B0003F11400A8421146ED
:1033300002F10102F7D9CAF8441008E401230B9303
:103340000A9B069A13440F930133012B1D460893E1
:10335000B8BF0125DFE700230B93F1E700230B93B0
:10336000D4E70B9B002B7FF4FFAE39465846FFF79E
:103370002BFA069A029C00F130030132069204F8FF
:10338000013B4FF000098CE629462246504601F0E9
:10339000B5FD0546EBE60C9B0C96F31A9944002606
:1033A000C5E5022601E401230A930893FFF7CABB8F
:1033B00003D1009BDB073FF583AE631E01E013F8EA
:1033C000012D302A03F10104F9D087E60E9A002A74
:1033D00000F0CF8003F23343099A0C9E14461A443E
:1033E00098440992ACE5069A01320692029A31237A
:1033F000137073E6304603F0E5FEDDE9002303F0C9
:103400004BFF00225E4B03F091FD0446A1F1507585
:1034100000225C4BDDE9000103F086FD22462B46CD
:1034200006460F4604F0C8F9002840F08D80224679
:1034300005F100433046394604F0A0F900283FF476
:103440009AAC00273D46BEE400F0F980069B5C4242
:103450004D4B04F00F0203EBC203D3E90023DDE977
:10346000040103F019FF2411CDE9000100F0E78009
:10347000464D00230226E70705D5D5E9002303F0D2
:103480000BFF01360123641005F10805F3D1002B71
:103490003FF4A4ABCDE90001FFF7A0BB0D905BE5C5
:1034A000009B002B7FF443AEDDE90012C2F313034F
:1034B000002B7FF43CAE364E1640002E3FF4A2ADFA
:1034C000099B0133099308F1010801269AE5069941
:1034D000002A01F10101069112DD594601225046F0
:1034E000039301F00BFD3946834601F06DFD002882
:1034F000039B40F3DF80392B00F0D180009B3133F8
:10350000A94633704546E9E56968504601F0C6FAB8
:103510000446002800F019812B6902339A0005F156
:103520000C010C3001F0B4F921460122504601F0A3
:10353000E5FC80461FE6DDF800B0DDF80CA000E4F5
:10354000DDE908239C1AFBE400273D4699E6069A2C
:10355000392B02F10102069200F0A1800133A94645
:1035600033704546BAE5069A0132A94606924546A9
:1035700097E5149BC3F136032EE700BFB4CA0108D8
:1035800000001C400000144028D4000818D5000892
:103590000000F07FDDE9000103F07EFE029B1D705C
:1035A000109B012BCDE9000123D0109B029ACDF88E
:1035B00040901344C146984600226D4B3046394630
:1035C00003F06AFE0F46064604F016F9054603F0BE
:1035D000F9FD303502460B463046394603F0A4FC6F
:1035E00004F8015B444506460F46E5D1C846DDF8C0
:1035F0004090604B0022DDE9000103F097FC324669
:103600003B4604F0BBF800284ED1DDE90023002042
:10361000584903F089FC32463B4604F0CDF80028B7
:103620003FF4A9AB00E0144614F8013C302B04F140
:10363000FF32F8D0129B01330693FFF782BB0226BC
:10364000FFF7CCBA089B002B3FF4D4AE0F9F002F9E
:103650007FF791AB0022464B2046294603F01CFE23
:1036600004460D46701CCDE9004503F0ABFD224633
:103670002B4603F011FE404B002203F057FC069B43
:103680001097013B0446A1F150751293FFF7C9BA98
:10369000069A0132069231221A70FFF752BB392284
:1036A000A946327045460BE5129B0133069314F888
:1036B000015C1EE47FF424AFDA077FF521AF1AE73F
:1036C000129B0133DA460693DDF800B011E4069A46
:1036D000392B02F10102069206F10104DFD0B9F1A3
:1036E000000F3FF70BAF0BE7039B022B02DCCDF87B
:1036F00018803AE60F9B0893CDF81880B0E5039B3D
:10370000022BF7DC0F9BCDF8188008932CE5129B59
:1037100001330693FFF7EDBB184B0293FFF724B973
:103720003FF485ACC0F13C007CE40024CAF844407E
:103730002146504601F0B2F9029068B9104B114889
:1037400000224FF4D57102F0B5FF02460C4B0D4834
:1037500040F2EA2102F0AEFF4FF0FF330893029AE5
:103760000F930123CAF840200A940B93FFF707BB7D
:10377000000024400000E03F00001C40B8CA0108DF
:10378000C4CA0108D8CA0108B1F90C309AB22DE9AF
:10379000F0410C461107804648D4626843F4006348
:1037A000002AA3815DDDA56A002D57D000229BB2BF
:1037B000D8F80060E169C8F8002013F4805254D1B1
:1037C00001234046A847431C66D0A389A56AE16946
:1037D0005F0705D56268236B801A0BB1E36BC01AD3
:1037E000024600234046A847451C48D1D8F800208F
:1037F000B4F90C30002A5CD01D2A01D0162A64D1FD
:1038000022690021C4E9002123F40063A381216B14
:10381000C8F8006011B304F14003994202D0404659
:1038200000F0CEF900202063BDE8F0812669AEB13A
:103830002568266091070CBF63690023AD1BA36058
:103840000AE02B463246676AE1694046B8470028DD
:10385000A5EB000506440ADD002DF2DC0020BDE8E2
:10386000F081E26B002A9EDCF8E7206DB0E7A389C7
:1038700043F04003A3814FF0FF30BDE8F081B4F97D
:103880000C302269226023F4006300226260DA04B3
:10389000A381BCD52065BAE7D8F80030002B94D0BE
:1038A0001D2B0FD0162B0DD0A38943F04003A3810D
:1038B000D5E723F400632169A381DB04C4E9001286
:1038C000A5D5E7E7C8F80060C8E743F04003A38147
:1038D000C5E700BF10B5044682B008B1836B23B1C1
:1038E000B1F90C0048B902B010BD019100F0F8F830
:1038F0000199B1F90C000028F5D0204602B0BDE8CE
:103900001040FFF741BF00BF20B1054B01461868CA
:10391000FFF7E0BF034B0449186800F0F5BB00BF98
:1039200078000020F0D30008D53800080020704748
:10393000014900F0E9BB00BF5D6700082DE9F84FC1
:1039400045682C4BC3630024074600F53B720423F3
:103950000321C0E9B912C0F8E0422146EB6005F14D
:103960005C006C66C5E90044AC60C5E90444AC6128
:103970000822FDF761F8DFF888B0BE68DFF884A0A0
:10398000DFF88490DFF884801B4BC5F82C80C5E9F4
:10399000075BC5E909A92146F360082206F15C002E
:1039A0007466C6E90044B460C6E90444B461FDF736
:1039B00043F8FD68114BC6F82C80C6E9076BC6E9D1
:1039C00009A92146EB606C66C5E90044AC60C5E915
:1039D0000444AC6105F15C000822FDF72DF80123D9
:1039E000C5E9075BC5E909A9C5F82C80BB63BDE83B
:1039F000F88F00BF313900080900010012000200F1
:103A0000655800088D580008CD580008ED5800088A
:103A10000020704770B54A1E682505FB02F50E466A
:103A200005F1740100F02CFC044640B100210C307B
:103A3000666005F168022160A060FCF7FDFF20468A
:103A400070BD00BF1F4B70B51D68AB6B06464BB316
:103A500005F53875D5E90134013B05D51EE0013B7C
:103A60005A1C04F1680419D0B4F90C20002AF6D1CC
:103A70000025154B6566C4E90055A560C4E90455E9
:103A8000A5612946E360082204F15C00FCF7D4FF3D
:103A9000C4E90C55C4E91155204670BD2C682CB101
:103AA0002546D7E72846FFF749FFD1E704213046EE
:103AB000FFF7B0FF044628600028F1D10C233360E3
:103AC000EAE700BFF0D300080100FFFF024B034903
:103AD000186800F019BB00BFF0D300085D6700084C
:103AE000836B03B1704729E7704700BF704700BF81
:103AF000704700BF704700BF024B0349186800F0D1
:103B0000DDBA00BF780000202D390008024B0349C0
:103B1000186800F0D3BA00BF78000020113A0008FE
:103B2000F8B5244F0C46064600F0B4FFBB685D684C
:103B3000C4F57E610F3125F00305294421F47F612E
:103B400021F00F01A1F58054B4F5805F07DB00215F
:103B5000304604F07FFCBB682B44984204D03046CA
:103B600000F09AFF0020F8BD6142304604F072FC7C
:103B700001300DD0104BBA6819682D1B45F00105B6
:103B80003046091B5560196000F086FF0120F8BD22
:103B90000021304604F05EFCBA68831A0F2BDEDD8C
:103BA000064C0549246843F00103001B536008607C
:103BB000D5E700BFA8040020B40C0020B008002006
:103BC00000295ED0F8B50F46064600F063FF57F8AF
:103BD00004CC754D2CF00103A7F10800C218A968A8
:103BE0005468914224F0030400F084801CF0010F1B
:103BF000546002EB040133D157F808EC4968A0EB9C
:103C00000E0005F1080C87686745734401F0010157
:103C100060D0D0F80CE0C7F80CE0CEF808700029AE
:103C200000F08D8043F0010141601360B3F5007F27
:103C300030D2DB08591C6C689A100123934023434F
:103C400005EBC10255F831406B60083AC0E9024209
:103C500045F83100E0603046BDE8F84000F01CBF98
:103C60004968C9070ED4234405F1080C91686145E1
:103C700043F001046BD0D268CA6091604460C350C5
:103C8000D4E7704743F00101B3F5007F47F8041C07
:103C90001360CED35A0A042A46D89A0902F139078A
:103CA000FF0002F13801EC19EA59083C944255D062
:103CB000516821F00301994202D992689442F7D1E8
:103CC000D468C0E90224A060D0603046BDE8F84066
:103CD00000F0E2BE002962D1D2E90221234443F080
:103CE0000104D1608A604460C3503046BDE8F840AA
:103CF00000F0D2BE1CF0010F234407D157F8082C66
:103D0000801A1344D0E90212CA609160274A1268EF
:103D100043F001019A424160A8609CD8244B304690
:103D20001968FFF7FDFE96E7142A0AD9542A1DD810
:103D30001A0B02F16F07FF0002F16E01B3E7234493
:103D400094E702F15C07FF0002F15B01ABE7C5E914
:103D50000400C0E902CC4460C3507CE76B68891062
:103D6000012707FA01F119436960AAE7B2F5AA7FB2
:103D700006D8DA0B02F17807FF0002F1770192E72B
:103D800040F254518A4206D89A0C02F17D07FF0096
:103D900002F17C0187E74FF47E777E2183E743F0D1
:103DA00001014160136056E7A8040020B408002018
:103DB000B00C00209368002B00F002812DE9F04F39
:103DC000B1F90C309BB20C46190783B0824690467D
:103DD00035D522699AB313F00202D8F800603DD0BD
:103DE0000027D4F824B0D4F81CC0DFF8CC923D46AC
:103DF0004D452B463A4628BF4B4661465046D5B105
:103E0000D847002840F3D280D8F808301B1A07445E
:103E10002D1AC8F80830002B00F0B780D4F81CC069
:103E2000D4F824B04D452B463A4628BF4B46614650
:103E30005046002DE4D1D6E900750836D8E7214672
:103E40005046FEF725FC002840F03081B4F90C30D4
:103E5000D8F800609BB213F00202C1D113F001093F
:103E600040F0B080A76820684D46002D54D09A05D8
:103E700040F1BC80AF42BB4600F2E78013F4906F84
:103E80002FD0D4E9041707EB4707A0EB010B07EB92
:103E9000D777681C7F105844B8423A4684BF07461B
:103EA0003A465B0540F1E9801146504600F0E8F9DA
:103EB000002800F0F5805A462169019000F0E8FCE6
:103EC000A289019B22F4906242F08002A281A7EBBA
:103ED0000B0203EB0B00676123612060A2602F4699
:103EE000AB465A46494600F06DFDA2682368D21BD6
:103EF0005B442F46A26023600025D8F80830DB1B06
:103F0000B944C8F80830002B3FD0B4F90C30A7688A
:103F100020689BB2002DAAD1D6E900950836A4E707
:103F20000BF1080353E902679B460833002FF9D0D1
:103F30003A460A21304600F05BFC002853D001309D
:103F4000A0EB06094B46D4E904122068BB4228BF07
:103F50003B46884203D9A5681544AB4219DC9A4216
:103F60007DDC1346656AE16932465046A847051E66
:103F70001CDDB9EB05096BD00120D8F808305B1BBC
:103F80002E447F1BC8F8083013BB002003B0BDE8E7
:103F9000F08F31462A4600F015FD23682B4423603C
:103FA00021465046FFF796FC0028E2D0B4F90C30C9
:103FB00043F040034FF0FF30A38103B0BDE8F08F22
:103FC0000020704733469146104617464E469B46A2
:103FD000002FA5D00028B5D13A460A21304600F07E
:103FE00007FC0028ABD17B1C9946ACE723698342D0
:103FF00015D36169A94212D82E4B676A9D4294BFBE
:104000002B466FF000434A4693FBF1F3504601FB09
:1040100003F3E169B847071EC8DDED1B6DE7AF424A
:1040200028BF2F463A46494600F0CCFCA3682268D8
:10403000DB1B3A44A3602260002BEED121465046A0
:10404000FFF748FC0028E8D0B0E72F46AB4648E72A
:1040500021465046FFF73EFC00288ED0A6E71A46C0
:104060003146019300F0AEFC019BA1682268C91A99
:104070001A44A16022601D467BE7504601F03CFADD
:10408000034600287FF423AF21695046FFF798FDCF
:10409000B4F90C300C2223F08003CAF8002087E723
:1040A0000C23CAF80030B4F90C3081E74FF0FF3030
:1040B0006CE700BFFEFFFF7F00FCFF7F2DE9F041B2
:1040C00010F538771BD088460026D7E90154013D0A
:1040D0000FD4A389012B05F1FF3506D9B4F90E30B1
:1040E0000133204601D0C04706436B1C04F168042D
:1040F000EFD13F68002FE8D13046BDE8F0813E4661
:104100003046BDE8F08100BF2DE9F84310F538775F
:104110001FD0884606464FF00009D7E90154013DFB
:1041200011D4A389012B05F1FF3508D9B4F90E305C
:1041300001332146304602D0C04749EA00096B1CD2
:1041400004F16804EDD13F68002FE6D14846BDE890
:10415000F883B9464846BDE8F88300BFF0307047A1
:1041600000487047A809002000487047A8090020AF
:1041700070B50C46B1F90E10002996B015461E46D2
:1041800014DB6A4604F081F900280FDB019A02F47F
:104190007042A2F50052B2FA82F252094FF48063E3
:1041A0004FF4006032602B6016B070BDA28900230E
:1041B00012F08000336004D0402218462A6016B006
:1041C00070BD4FF480632B6016B070BD8A89920772
:1041D0000B4606D501F1430201211A60C3E904210F
:1041E000704770B582B001AB6A460C460646FFF7D1
:1041F000BFFF00990546304600F042F8B4F90C3094
:1042000070B11649F163019A0099206043F0800370
:10421000A381C4E904018AB92B43A38102B070BD14
:104220009A05FBD423F0030304F1430243F0020395
:104230000121A3812260C4E90421EFE73046B4F9EB
:104240000E1004F027F910B9B4F90C30E4E7A38993
:1042500023F0030343F001031BB2DDE7313900080B
:10426000024B0146186800F00BB800BF7800002030
:10427000024B01461868FFF7A3BC00BF780000207E
:104280002DE9F04F01F10B05162D83B0064623D81A
:10429000102900F2B98000F0FDFB10251823022040
:1042A000CD4F3B44A3F108025C68944200F0B98012
:1042B000636823F003032344D4E902515A68E96098
:1042C00042F0010230468D605A6000F0E5FB083490
:1042D000204603B0BDE8F08F35F0070500F194806B
:1042E000A94200F2918000F0D5FBB5F5FC7FC0F04B
:1042F0009D816B0A00F08F80042B00F27381AB0963
:1043000003F1390003F1380CC300B34F3B44A3F170
:1043100008015C68A14206D10CE0002A80F22B81E2
:10432000E468A14206D0636823F003035A1B0F2AF6
:10433000F3DD60463C69DFF8A4C264457CD0636865
:1043400023F003035A1B0F2A00F37E81002AC7E9DA
:1043500004CC80F26F81B3F5007F80F01A81DB0816
:10436000591C7A6857F83180C4F808804FF0010E64
:104370009B100EFA03F307EBC10E1343AEF10802D4
:10438000E2607B6047F83140C8F80C40821001249D
:1043900094409C4256D81C4206D120F00300640091
:1043A0001C4200F10400FAD007EBC009CE4680465B
:1043B000DEF80C309E4507D120E1002A80F22781EB
:1043C000DB689E4500F01A81596821F003014A1B01
:1043D0000F2AF2DDD3E9028E5C1945F001055D601C
:1043E00042F00105C8F80CE03046CEF80880C7E975
:1043F0000444C4E902CC65605A50009300F04CFBC1
:10440000009B03F1080402E00C23336000242046E3
:1044100003B0BDE8F08F4FF4007340204FF03F0C25
:1044200073E7DC68A34208BF02307FF441AF3C6908
:10443000DFF8A8C1644582D17B68821001249440D2
:104440009C42A8D9BC68636823F00308A84503D33D
:10445000A8EB05030F2B7EDCDFF88491D7F8082446
:10446000D9F80030013204EB080A2B4400F0378100
:1044700003F580530F3323F47F6B2BF00F0B59465A
:10448000304603F0E7FF411C024600F0F78082450A
:1044900000F2F280D9F804105944C9F804100B4610
:1044A00000F05381D7F8081401311BBFA2EB0A0AB0
:1044B0005344C7F80824C9F8043012F0070300F089
:1044C0001A81C3F108010A44C3F5805193440831AD
:1044D000A1EB0B01C1F30B0A514630460193009248
:1044E00003F0B8FF421CDDE9002300F05381831A7A
:1044F00003EB0A0BD9F80410BA604BF001035144E6
:10450000BC425360C9F8041000F02B81B8F10F0FC2
:1045100040F229816368A8F10C0020F0070003F045
:10452000010304EB000C03434FF0050E0F286360FA
:10453000CCE901EE00F2358153681446D9F82C20FD
:104540008A42D9F8302038BFC9F82C108A4238BFC7
:10455000C9F8301094E0621943F0010345F00105F9
:1045600065603046BA60536000F096FA0834204621
:1045700003B0BDE8F08F2344E1685A68A56842F0B3
:104580000102E96030468D605A6000F085FA083417
:104590003DE75A0A042A69D9142A00F2BE8002F1C2
:1045A0005C01C9005B3207EB010E7958AEF1080ED1
:1045B0008E4500F097804A6822F003029A4202D9A1
:1045C00089688E45F7D1D1F80CE07B68C4E9021EFA
:1045D000CEF80840CC60D9E6A8040020B004002042
:1045E000B00C0020142B59D9542B00F29E802B0BB9
:1045F00003F16F0003F16E0CC30086E608F10108B9
:1046000018F0030F0EF1080E7FF4D2AE51E01944FA
:104610001C464A68DB6854F8085F42F001024A60B1
:104620003046EB609D6000F037FAF0E6E80805F1EF
:10463000080335E6234430465A6842F001025A60C6
:10464000083400F029FAE2E6611945F0010E42F063
:104650000105C4F804E03046C7E90411C1E902CC01
:104660004D60E25000F018FA0834D0E69A0902F1E1
:104670003901C900383296E7BC4260D0BC68636833
:1046800023F0030BAB45ABEB050302D30F2B3FF736
:1046900062AF304600F000FA0024B8E603F15C0097
:1046A00003F15B0CC30030E659F808394B4540F084
:1046B000968010F0030F00F1FF30F5D17B6823EAFC
:1046C00004037B6064009C423FF6BCAE1CB9B9E6B3
:1046D000640008F104081C42FAD0404664E603F185
:1046E000100BCCE67B6892104FF0010808FA02F23A
:1046F00013437B606AE702EB0B014942C1F30B0AEB
:10470000514630460193009203F0A4FE431CDDE9BC
:1047100000237FF4ECAE9A46ECE6542A26D81A0B16
:1047200002F16F01C9006E323DE7B3F5AA7F26D8CA
:10473000EB0B03F1780003F1770CC300E5E5D9F842
:1047400004305B44C9F80430ACE6CAF30B0000281F
:104750007FF4A8AE08EB0B03BC6843F00103636071
:10476000ECE61446EAE60123536092E7B2F5AA7F2D
:1047700021D8DA0B02F17801C900773213E740F251
:104780005452934221D8AB0C03F17D0003F17C0C11
:10479000C300BAE5083B9B44ABEB020B4FF0000AA9
:1047A000A8E604F108013046FFF70AFABC68D9F818
:1047B00004106368C2E640F254518A420BD89A0C46
:1047C00002F17D01C9007C32EDE64FF47E737F205B
:1047D0004FF07E0C99E54FF47E717E22E3E67B6814
:1047E00070E700BF000000000000000000000000B3
:1047F00001F0FF01102A2BDB10F0070F08D010F892
:10480000013B013A8B422DD010F0070F42B3F6D195
:10481000F0B441EA012141EA014122F007047FF0AE
:1048200000070023F0E80256083C85EA010586EA05
:10483000010685FA47F5A3FA87F586FA47F6A5FA41
:1048400087F68EB9EED1F0BC01F0FF0102F007024D
:1048500032B110F8013B013A83EA010313B1F8D1F8
:104860000020704701387047002D06BF35460338D9
:10487000073815F0010F07D1013015F4807F02BF12
:10488000013015F4C03F0130F0BC0138704700BF63
:10489000844641EA000313F003036DD1403A41D34B
:1048A00051F8043B40F8043B51F8043B40F8043B0A
:1048B00051F8043B40F8043B51F8043B40F8043BFA
:1048C00051F8043B40F8043B51F8043B40F8043BEA
:1048D00051F8043B40F8043B51F8043B40F8043BDA
:1048E00051F8043B40F8043B51F8043B40F8043BCA
:1048F00051F8043B40F8043B51F8043B40F8043BBA
:1049000051F8043B40F8043B51F8043B40F8043BA9
:1049100051F8043B40F8043B51F8043B40F8043B99
:10492000403ABDD2303211D351F8043B40F8043B39
:1049300051F8043B40F8043B51F8043B40F8043B79
:1049400051F8043B40F8043B103AEDD20C3205D349
:1049500051F8043B40F8043B043AF9D2043208D041
:10496000D2071CBF11F8013B00F8013B01D30B88B3
:1049700003806046704700BF082A13D38B078DD091
:1049800010F003038AD0C3F10403D21ADB071CBF63
:1049900011F8013B00F8013B80D331F8023B20F8CD
:1049A000023B7BE7043AD9D3013A11F8013B00F806
:1049B000013BF9D20B7803704B7843708B7883708E
:1049C000604670478842F0B40DD98B1883420AD9EB
:1049D000841832B1224613F8014D02F8014D994274
:1049E000F9D1F0BC70470F2A0ED80346541E002A96
:1049F000F7D001340C44013B11F8012B03F8012FCF
:104A0000A142F9D1F0BC704740EA01039B073BD1BA
:104A1000A2F110073F0901F1200606EB071601F18C
:104A2000100300F1100453F8105C44F8105C53F8C4
:104A30000C5C44F80C5C53F8085C44F8085C53F8D0
:104A4000045C44F8045C1033B34204F11004EAD16E
:104A50007B1C1B0112F00C0F194402F00F050344DC
:104A600015D0043DAD0803EB850C1C1F0E4656F80F
:104A7000047B44F8047F6445F9D10135AD002B4433
:104A8000294402F00302B1E7541E0346B1E72A4667
:104A9000ACE700BF704700BF704700BFC36C70B584
:104AA00005460C464BB153F8240080B1026843F828
:104AB00024200023C0E9033370BD2122042101F02A
:104AC0001DFE0346E8640028EDD1002070BD0121E1
:104AD00001FA04F6721D2846920001F00FFE00282C
:104AE000F3D0C0E90146E4E731B1C36C4A6853F83A
:104AF0002200086043F82210704700BFF0B50C692F
:104B000083B00D46064601F1140C0027DCF80000C6
:104B100081B202FB0133190C000C02FB00109BB2A6
:104B2000013703EB0043BC424CF8043B4FEA10430F
:104B3000ECDC3BB1AA68A24207DD05EB840201343C
:104B400053612C61284603B0F0BD6968019330467B
:104B50000131FFF7A3FF019B0746B8B12A69019312
:104B6000023205F10C0192000C30FFF791FEF26C5D
:104B70006968019B52F82100286042F821503D46A7
:104B800005EB8402013453612C61DBE70246024BE2
:104B90000248B52101F08EFDC4CA01080CCB010802
:104BA0002DE9F843264C089E1D46083384FB034C30
:104BB000092D4FEAE373904607460C46C3EB6C029F
:104BC00036DD012300215B009A4201F10101FADC8C
:104BD0003846FFF763FF68B30123B8F1090FC0E956
:104BE000043613DC0A344FF0090845450CDDA5EB0B
:104BF0000805254414F8013B0146303B0A2238469B
:104C0000FFF77CFFA542F5D1BDE8F88304F109095F
:104C10004E46444416F8013B0146303B0A223846D2
:104C2000FFF76CFFB442F5D1A8F108044C44DCE76F
:104C30000021CDE70246034B0348CE2101F03AFDA7
:104C4000398EE338C4CA01080CCB0108020C1204E7
:104C50000346CAB90304102013F07F4F04BF1B02A0
:104C6000083013F0704F04BF1B01043013F0404FA5
:104C700004BF9B000230002B05DB13F0804F00F1D6
:104C8000010008BF202070470020E5E7036813F00B
:104C90000702014607D0DA0720D4980722D55B081F
:104CA0000B600120704798B2B0B91B0C102013F0B4
:104CB000FF0F04BF1B0A08301A0704BF1B0904308A
:104CC0009A0704BF9B080230DA0703D45B0800F19F
:104CD000010005D00B6070471046E8E700207047E0
:104CE000202070479B080B600220704710B50C46CF
:104CF0000121FFF7D3FE024618B10123C0E90434B5
:104D000010BD034B03484FF4A07101F0D3FC00BF6A
:104D1000C4CA01080CCB01082DE9F04F0E691769D0
:104D2000BE4283B00C46154605DB3A462B46374655
:104D30000D4616461C46D5E9011307EB0608434508
:104D4000B8BF0131FFF7AAFE009000287FD0009B7A
:104D500003F1140A0AEB8809CA4505D2534600211B
:104D600043F8041B9945FBD804F1140E0EEB860B97
:104D700005F11403DE4503EB870753D2CDF8048019
:104D8000984605E0090C28D1F3450AF1040A47D9F1
:104D90005EF8041B8EB2002EF4D045465446002324
:104DA00055F8041B20688AB21FFA80FC06FB02C279
:104DB000090C000C134406FB010202EB13429BB2E8
:104DC00043EA0243AF4244F8043B4FEA1243E7D8B8
:104DD00023605EF8041C090CD6D0DAF80030404697
:104DE0001A4654464FF0000C0588120C01FB0522B0
:104DF00094449BB243EA0C4344F8043B50F8043B10
:104E000022681B0C95B201FB035303EB1C43874242
:104E10004FEA134CE8D8F34523600AF1040AB7D8E7
:104E2000DDF80480B8F1000F0BDD59F8043CA9F15E
:104E300004091BB105E059F8043D13B9B8F10108A4
:104E4000F9D10098C0F8108003B0BDE8F08F024699
:104E5000024B034840F25D1101F02CFCC4CA01086A
:104E60000CCB010812F003032DE9F041144607466C
:104E70002ED10D46A4101CD0BE6C96B3E3074FF0A4
:104E8000000806D4641014D03068A8B10646E307C1
:104E9000F8D5324629463846FFF73EFFB5B16A6875
:104EA000FB6C641053F82210296043F82250054629
:104EB000EAD12846BDE8F081324631463846FFF750
:104EC0002BFF3060C0F800800646E0E70546D9E7D2
:104ED000013B094A52F823200023FFF70FFE054645
:104EE000C8E740F271213846FFF700FF0023B8649D
:104EF00006460360C2E700BF18D400082DE9F84356
:104F00000E690D464FEA6219D1E901134E44741C33
:104F10009C429046074604DD5B009C4201F1010182
:104F2000FADC3846FFF7BAFD002842D0B9F1000F8D
:104F300000F1140C0EDD09F105094FEA890900EBB7
:104F400009016346002243F8042B8B42FBD1A9F1EF
:104F50001409CC44296905F1140318F01F0803EB68
:104F6000810E1DD0C8F120090022196801FA08F14C
:104F700011434CF8041B53F8042B734522FA09F231
:104F8000F3D3CCF80020002A18BF2646FB6C6A68D1
:104F9000066153F82210296043F82250BDE8F883D7
:104FA000ACF1040C53F8042B4CF8042F9E45F9D8AF
:104FB000ECE70246024B034840F2D91101F07AFBBC
:104FC000C4CA01080CCB010830B40B69054600695E
:104FD000C01A10D19B001435143119442B4401E040
:104FE0009D4208D253F8044D51F8042D9442F7D055
:104FF00003D24FF0FF3030BC7047012030BC704707
:105000002DE9F84316460B691269A3EB0208B8F1C3
:10501000000F0D4667D1920001F1140706F114014B
:10502000BB18114401E09F4261D253F8042D51F89E
:10503000044DA242F7D050D36968FFF72FFD002836
:105040005FD02F693369C0F80C8006F11402143563
:1050500005EB870C02EB830E00F11406002100E043
:10506000264652F8044B55F8048B1FFA84F911FABE
:1050700088F3210CA3EB0903C1EB184101EB234199
:1050800034469BB243EA014396454FEA214144F836
:10509000043BA846E4D8AC4516D9264658F8042B5C
:1050A00011FA82F3191401EB12419BB243EA014356
:1050B000C44546F8043B4FEA2141EFD80CF1FF36D6
:1050C000761B26F00306264423B956F8043D013F1B
:1050D000002BFAD00761BDE8F8832B464FF001089A
:1050E00035461E46A8E7F8DB4FF00008A4E700218C
:1050F000FFF7D4FC60B101220023C0E90423BDE81E
:10510000F8830246064B07484FF4107101F0D2FABB
:105110000246034B034840F2322101F0CBFA00BFB4
:10512000C4CA01080CCB0108124B10EE902A1A4099
:10513000A2F15073002B04DD0020194641EC100B46
:1051400070475B421B15132B07DC4FF40022002035
:1051500042FA03F141EC100B7047143B1E2BDABFEF
:105160004FF0004222FA03F301230021184641ECDC
:10517000100B70470000F07FF8B5046900F11406C9
:1051800006EB840454F8045C2846FFF75FFDC0F189
:1051900020030A280B60A4F1040131DD8E42A0F146
:1051A0000B001AD254F8081C10B3C0F12007854038
:1051B00021FA07F31D4345F07F53A4F10805AE42E1
:1051C00001FA00F043F4401303D254F80C1CF940E8
:1051D0000843024643EC102BF8BD40B105FA00F03D
:1051E00040F07F53002043F440130246F2E70146AB
:1051F00045F07F5343F440130A4643EC102BF8BDAF
:105200008E42C0F10B0738BF54F8081C25FA07FC82
:1052100000F115004CF07F5334BFF940002105FA2E
:1052200000F043F4401340EA010243EC102BF8BDB8
:105230002DE9F043884683B00121154657EC106BE9
:10524000FFF72CFC0446002850D0C7F30A59C7F3D7
:105250001303B9F1000F01D043F48013002E019322
:1052600025D068460096FFF711FD00283AD0DDE909
:105270000013C0F1200203FA02F20A43C340019373
:105280006261002B14BF02210121A3612161B9F1E8
:10529000000F17D0A9F2334909EB0003C0F1350024
:1052A000C8F800302860204603B0BDE8F08301A8AC
:1052B000FFF7ECFC019B6361012120302161B9F112
:1052C000000FE7D104EB8103A0F23240C8F80000E0
:1052D0001869FFF7BBFCC0EB41102860204603B003
:1052E000BDE8F083DDE900236261CAE70246034BB3
:1052F000034840F20A3101F0DDF900BFC4CA0108D9
:105300000CCB01082DE9F04383B0884669468146FD
:10531000FFF732FF404601A955EC104BFFF72CFF79
:10532000DDE90013D9F81020D8F81000CB1A121AB2
:1053300003EB4213002B57EC106B0DDD05EB03590B
:105340004D4632463B462046294602F0CFF841EC16
:10535000100B03B0BDE8F083C3EB033307EB03513D
:105360000F46EEE71728D0B504460CDD0A490B4F6F
:105370000020002632463B4601F08EFF013CF9D169
:1053800041EC100BD0BD064B03EBC004D4E9040183
:1053900041EC100BD0BD00BF0000F03F00002440E6
:1053A00018D4000870B414694E1E02F1140376116B
:1053B00003EB840101368B4200EB86060CD2041FFE
:1053C00053F8045B44F8045F9942F9D88B1A153BF3
:1053D00023F0030304331844864204D9002340F821
:1053E000043B8642FBD870BC704700BF03694A117A
:1053F000934210B400F1140410DA04EB83039C42CE
:105400001ED253F8040C043B18B115E053F8042DD8
:1054100092B99C42FAD35DF8044B704704EB8203C7
:10542000EDDD11F01F01EAD054F8220020FA01F25C
:1054300002FA01F18842E2D001205DF8044B704786
:105440000020E8E710B5044682B008B1836B83B151
:105450009368013B002B936016DA9069834215DB59
:10546000C8B20A2812D013685C1C1460197002B00C
:1054700010BDCDE90012FEF733FBDDE900129368A1
:10548000013B002B9360E8DBC8B2ECE7204602B09A
:10549000BDE8104001F0AEB8164B70B51D68064669
:1054A0000C460DB1AB6B7BB1A368013B002BA36035
:1054B00012DAA269934215DBF0B20A2812D02368EF
:1054C0005A1C22601E7070BD2846FEF709FBA368B7
:1054D000013B002BA360ECDB23685A1C22601E708A
:1054E000F0B270BD224631462846BDE8704001F05A
:1054F00081B800BF780000202DE9F84F1746002939
:1055000000F0BB8007F10B0481460D46FFF7C2FA9D
:10551000162C5ED810242246A7425FD855F804EC1A
:105520002EF00306A5F10808964208EB060A80F261
:105530008180CB4BDAF804009968514500F0B580C2
:1055400020F0010353445B68DB0700F18A8020F000
:1055500003003318934280F212811EF0010F0FD125
:1055600055F8083CA8EB030BDBF8041021F003010D
:1055700008448319934280F216817318934234DAF7
:1055800039464846FEF77CFE0746E0B155F8043C34
:1055900023F001034344A0F10802934200F0F78096
:1055A000321F242A00F2FB80132A296800F2C980E6
:1055B00003462A4619605168596092689A602946E4
:1055C0004846FEF7FDFA4846FFF766FA3846BDE85A
:1055D000F88F24F00704002C22469DDA0C23C9F82A
:1055E000003000273846BDE8F88F5F46DBF80C1026
:1055F00057F8080F321F242AC1600BEB030A88609A
:1056000000F2D980132A296840F2D380CBF8081021
:105610006968CBF80C101B2AA96800F2E0800BF136
:1056200010020835116069685160A96891601E46D2
:10563000D8463D46D8F80430321B0F2A03F0010348
:1056400020D83343C8F80430DAF8043043F00103BB
:10565000CAF8043048462F46FFF71EFA3846BDE820
:10566000F88F1EF0010F8BD155F8083CA8EB030B07
:10567000DBF8041021F003017FE71146BDE8F84F85
:10568000FEF7FEBD08EB0401234342F00102C8F817
:1056900004304A60DAF8043043F001030831CAF8F4
:1056A00004304846FEF78CFAD4E720F003003118A6
:1056B00004F1100C61454FDA1EF0010F7FF460AF6A
:1056C00055F8081CA8EB010BDBF8041021F00301CE
:1056D000084400EB060AD4453FF74FAF5F46DBF8BE
:1056E0000C1057F8080F321F242AC160886000F29E
:1056F0009980132A296840F29380CBF808106968D2
:10570000CBF80C101B2AA96800F292800BF1100252
:105710000835116069685160A96891600BEB04015C
:10572000AAEB040242F0010299604A60DBF80430FF
:1057300003F001031C434846CBF80440FFF7ACF9E3
:1057400050E701606B6843601B2A3CD805F10802F2
:1057500000F10803A9682DE708EB04000A1B42F0DA
:1057600001029860426055F8043C03F001031C43B9
:10577000484645F8044CFFF78FF92F4632E7DAE93F
:1057800002121E46CA6008EB030A916052E750F805
:10579000043C23F003031E4408EB060A4AE72946AB
:1057A000FFF710F90BE7DAE902125F46CA60916071
:1057B0001CE73A4636E7294638461E46D846FFF7E4
:1057C00001F93D4636E7AB688360EB68C360242A85
:1057D00011D005F1100200F110032969EAE6CBF8B7
:1057E0001010E968CBF81410242A0ED029690BF1A7
:1057F0001802103516E72B6903616B694361A969CB
:1058000005F1180200F11803D4E62A69CBF8182034
:105810006A69CBF81C20A9690BF12002183501E751
:105820003A4676E729463846FFF7CCF80C4B75E741
:10583000CBF81010E968CBF81410242A04D0296999
:105840000BF11802103564E72A69CBF818206A6951
:10585000CBF81C20A9690BF12002183559E700BFCD
:10586000A804002010B50C46B1F90E1002F0DEFEBF
:10587000002803DB236D0344236510BDA38923F4B3
:105880008053A38110BD00BF002070472DE9F04177
:105890001646B1F90C201F46D3050C460546B1F952
:1058A0000E1009D422F48052A2813B46324628468B
:1058B000BDE8F04102F044BF0022022302F0ECFDFB
:1058C000B4F90C20B4F90E10ECE700BF10B50C468B
:1058D000B1F90E1002F0E0FDA389421C0EBF23F4C3
:1058E000805343F480532065A38110BDB1F90E109D
:1058F00002F0C8BD2DE9F84F4B6E9C0493462DD5A0
:105900009368126843B30E46074602F1080959E945
:10591000025A5FEA9A0815D0043D002401E0A04530
:105920000ED0324655F8041F384600F0D9FF431C0C
:1059300004F10104F3D10023CBE90133BDE8F88F72
:10594000DBF808302AF0030AA3EB0A03CBF808308F
:1059500009F10809002BDAD10020ECE7FEF72AFA5A
:105960000023CBE90133BDE8F88F00BF936803B192
:10597000C0E710B4184653605DF8044B704700BF91
:105980002DE9F04FABB01C468A469046CDE9043075
:1059900018B1836B002B00F0FF82BAF90C108AB2A9
:1059A00090040AD4DAF8643041F4005223F400532E
:1059B000AAF80C20CAF8643092B2110740F1CA80EC
:1059C000DAF81030002B00F0C58002F01A020A2A23
:1059D00000F0CE8000230893CDE90E3302931AAB7A
:1059E0000D939B4698F80030002B00F0DF80252BAC
:1059F00000F01C85454603E0252B00F0C6802546B7
:105A00006B786C1C002BF7D1B4EB080600F0CE804D
:105A1000DDE90E3201333244072BCBF80080CBF89E
:105A20000460CDE90E3200F3B5800BF1080B029A49
:105A30006B7832440292002B00F0B8804FF00003E4
:105A400000218DF82F306378039108460F4604F14A
:105A500001084FF0FF3908F10108A3F12002582A8C
:105A600000F29D82DFE812F0F9009B029B02F40035
:105A70009B029B029B029B029B029B02E900E400AB
:105A80009B02DF00C6009B02C100B200B200B20060
:105A9000B200B200B200B200B200B2009B029B02A0
:105AA0009B029B029B029B029B029B029B029B020E
:105AB00028029B029B029B029B029B029B029B0271
:105AC0009B029B029B0267009B029B029B029B0224
:105AD0009B0259009B029B0213029B029B029B02AA
:105AE0009B029B029B029B029B029B029B028401E6
:105AF00057019B029B029B02520157019B029B0292
:105B000045019B026E0269003F0240019B02200199
